{
  "contractName": "ERC721Core",
  "abi": [
    {
      "anonymous": false,
      "inputs": [
        {
          "indexed": true,
          "internalType": "address",
          "name": "owner",
          "type": "address"
        },
        {
          "indexed": true,
          "internalType": "address",
          "name": "approved",
          "type": "address"
        },
        {
          "indexed": true,
          "internalType": "uint256",
          "name": "tokenId",
          "type": "uint256"
        }
      ],
      "name": "Approval",
      "type": "event"
    },
    {
      "anonymous": false,
      "inputs": [
        {
          "indexed": true,
          "internalType": "address",
          "name": "owner",
          "type": "address"
        },
        {
          "indexed": true,
          "internalType": "address",
          "name": "operator",
          "type": "address"
        },
        {
          "indexed": false,
          "internalType": "bool",
          "name": "approved",
          "type": "bool"
        }
      ],
      "name": "ApprovalForAll",
      "type": "event"
    },
    {
      "anonymous": false,
      "inputs": [
        {
          "indexed": false,
          "internalType": "address",
          "name": "account",
          "type": "address"
        }
      ],
      "name": "Paused",
      "type": "event"
    },
    {
      "anonymous": false,
      "inputs": [
        {
          "indexed": true,
          "internalType": "bytes32",
          "name": "role",
          "type": "bytes32"
        },
        {
          "indexed": true,
          "internalType": "bytes32",
          "name": "previousAdminRole",
          "type": "bytes32"
        },
        {
          "indexed": true,
          "internalType": "bytes32",
          "name": "newAdminRole",
          "type": "bytes32"
        }
      ],
      "name": "RoleAdminChanged",
      "type": "event"
    },
    {
      "anonymous": false,
      "inputs": [
        {
          "indexed": true,
          "internalType": "bytes32",
          "name": "role",
          "type": "bytes32"
        },
        {
          "indexed": true,
          "internalType": "address",
          "name": "account",
          "type": "address"
        },
        {
          "indexed": true,
          "internalType": "address",
          "name": "sender",
          "type": "address"
        }
      ],
      "name": "RoleGranted",
      "type": "event"
    },
    {
      "anonymous": false,
      "inputs": [
        {
          "indexed": true,
          "internalType": "bytes32",
          "name": "role",
          "type": "bytes32"
        },
        {
          "indexed": true,
          "internalType": "address",
          "name": "account",
          "type": "address"
        },
        {
          "indexed": true,
          "internalType": "address",
          "name": "sender",
          "type": "address"
        }
      ],
      "name": "RoleRevoked",
      "type": "event"
    },
    {
      "anonymous": false,
      "inputs": [
        {
          "indexed": true,
          "internalType": "address",
          "name": "from",
          "type": "address"
        },
        {
          "indexed": true,
          "internalType": "address",
          "name": "to",
          "type": "address"
        },
        {
          "indexed": true,
          "internalType": "uint256",
          "name": "tokenId",
          "type": "uint256"
        }
      ],
      "name": "Transfer",
      "type": "event"
    },
    {
      "anonymous": false,
      "inputs": [
        {
          "indexed": false,
          "internalType": "address",
          "name": "account",
          "type": "address"
        }
      ],
      "name": "Unpaused",
      "type": "event"
    },
    {
      "inputs": [],
      "name": "DEFAULT_ADMIN_ROLE",
      "outputs": [
        {
          "internalType": "bytes32",
          "name": "",
          "type": "bytes32"
        }
      ],
      "stateMutability": "view",
      "type": "function",
      "constant": true
    },
    {
      "inputs": [],
      "name": "MINTER_ROLE",
      "outputs": [
        {
          "internalType": "bytes32",
          "name": "",
          "type": "bytes32"
        }
      ],
      "stateMutability": "view",
      "type": "function",
      "constant": true
    },
    {
      "inputs": [],
      "name": "PAUSER_ROLE",
      "outputs": [
        {
          "internalType": "bytes32",
          "name": "",
          "type": "bytes32"
        }
      ],
      "stateMutability": "view",
      "type": "function",
      "constant": true
    },
    {
      "inputs": [
        {
          "internalType": "address",
          "name": "to",
          "type": "address"
        },
        {
          "internalType": "uint256",
          "name": "tokenId",
          "type": "uint256"
        }
      ],
      "name": "approve",
      "outputs": [],
      "stateMutability": "nonpayable",
      "type": "function"
    },
    {
      "inputs": [
        {
          "internalType": "address",
          "name": "owner",
          "type": "address"
        }
      ],
      "name": "balanceOf",
      "outputs": [
        {
          "internalType": "uint256",
          "name": "",
          "type": "uint256"
        }
      ],
      "stateMutability": "view",
      "type": "function",
      "constant": true
    },
    {
      "inputs": [
        {
          "internalType": "uint256",
          "name": "tokenId",
          "type": "uint256"
        }
      ],
      "name": "burn",
      "outputs": [],
      "stateMutability": "nonpayable",
      "type": "function"
    },
    {
      "inputs": [
        {
          "internalType": "uint256",
          "name": "tokenId",
          "type": "uint256"
        }
      ],
      "name": "getApproved",
      "outputs": [
        {
          "internalType": "address",
          "name": "",
          "type": "address"
        }
      ],
      "stateMutability": "view",
      "type": "function",
      "constant": true
    },
    {
      "inputs": [
        {
          "internalType": "bytes32",
          "name": "role",
          "type": "bytes32"
        }
      ],
      "name": "getRoleAdmin",
      "outputs": [
        {
          "internalType": "bytes32",
          "name": "",
          "type": "bytes32"
        }
      ],
      "stateMutability": "view",
      "type": "function",
      "constant": true
    },
    {
      "inputs": [
        {
          "internalType": "bytes32",
          "name": "role",
          "type": "bytes32"
        },
        {
          "internalType": "uint256",
          "name": "index",
          "type": "uint256"
        }
      ],
      "name": "getRoleMember",
      "outputs": [
        {
          "internalType": "address",
          "name": "",
          "type": "address"
        }
      ],
      "stateMutability": "view",
      "type": "function",
      "constant": true
    },
    {
      "inputs": [
        {
          "internalType": "bytes32",
          "name": "role",
          "type": "bytes32"
        }
      ],
      "name": "getRoleMemberCount",
      "outputs": [
        {
          "internalType": "uint256",
          "name": "",
          "type": "uint256"
        }
      ],
      "stateMutability": "view",
      "type": "function",
      "constant": true
    },
    {
      "inputs": [
        {
          "internalType": "bytes32",
          "name": "role",
          "type": "bytes32"
        },
        {
          "internalType": "address",
          "name": "account",
          "type": "address"
        }
      ],
      "name": "grantRole",
      "outputs": [],
      "stateMutability": "nonpayable",
      "type": "function"
    },
    {
      "inputs": [
        {
          "internalType": "bytes32",
          "name": "role",
          "type": "bytes32"
        },
        {
          "internalType": "address",
          "name": "account",
          "type": "address"
        }
      ],
      "name": "hasRole",
      "outputs": [
        {
          "internalType": "bool",
          "name": "",
          "type": "bool"
        }
      ],
      "stateMutability": "view",
      "type": "function",
      "constant": true
    },
    {
      "inputs": [
        {
          "internalType": "string",
          "name": "name",
          "type": "string"
        },
        {
          "internalType": "string",
          "name": "symbol",
          "type": "string"
        },
        {
          "internalType": "string",
          "name": "baseTokenURI",
          "type": "string"
        }
      ],
      "name": "initialize",
      "outputs": [],
      "stateMutability": "nonpayable",
      "type": "function"
    },
    {
      "inputs": [
        {
          "internalType": "address",
          "name": "owner",
          "type": "address"
        },
        {
          "internalType": "address",
          "name": "operator",
          "type": "address"
        }
      ],
      "name": "isApprovedForAll",
      "outputs": [
        {
          "internalType": "bool",
          "name": "",
          "type": "bool"
        }
      ],
      "stateMutability": "view",
      "type": "function",
      "constant": true
    },
    {
      "inputs": [
        {
          "internalType": "address",
          "name": "to",
          "type": "address"
        }
      ],
      "name": "mint",
      "outputs": [],
      "stateMutability": "nonpayable",
      "type": "function"
    },
    {
      "inputs": [],
      "name": "name",
      "outputs": [
        {
          "internalType": "string",
          "name": "",
          "type": "string"
        }
      ],
      "stateMutability": "view",
      "type": "function",
      "constant": true
    },
    {
      "inputs": [
        {
          "internalType": "uint256",
          "name": "tokenId",
          "type": "uint256"
        }
      ],
      "name": "ownerOf",
      "outputs": [
        {
          "internalType": "address",
          "name": "",
          "type": "address"
        }
      ],
      "stateMutability": "view",
      "type": "function",
      "constant": true
    },
    {
      "inputs": [],
      "name": "pause",
      "outputs": [],
      "stateMutability": "nonpayable",
      "type": "function"
    },
    {
      "inputs": [],
      "name": "paused",
      "outputs": [
        {
          "internalType": "bool",
          "name": "",
          "type": "bool"
        }
      ],
      "stateMutability": "view",
      "type": "function",
      "constant": true
    },
    {
      "inputs": [
        {
          "internalType": "bytes32",
          "name": "role",
          "type": "bytes32"
        },
        {
          "internalType": "address",
          "name": "account",
          "type": "address"
        }
      ],
      "name": "renounceRole",
      "outputs": [],
      "stateMutability": "nonpayable",
      "type": "function"
    },
    {
      "inputs": [
        {
          "internalType": "bytes32",
          "name": "role",
          "type": "bytes32"
        },
        {
          "internalType": "address",
          "name": "account",
          "type": "address"
        }
      ],
      "name": "revokeRole",
      "outputs": [],
      "stateMutability": "nonpayable",
      "type": "function"
    },
    {
      "inputs": [
        {
          "internalType": "address",
          "name": "from",
          "type": "address"
        },
        {
          "internalType": "address",
          "name": "to",
          "type": "address"
        },
        {
          "internalType": "uint256",
          "name": "tokenId",
          "type": "uint256"
        }
      ],
      "name": "safeTransferFrom",
      "outputs": [],
      "stateMutability": "nonpayable",
      "type": "function"
    },
    {
      "inputs": [
        {
          "internalType": "address",
          "name": "from",
          "type": "address"
        },
        {
          "internalType": "address",
          "name": "to",
          "type": "address"
        },
        {
          "internalType": "uint256",
          "name": "tokenId",
          "type": "uint256"
        },
        {
          "internalType": "bytes",
          "name": "_data",
          "type": "bytes"
        }
      ],
      "name": "safeTransferFrom",
      "outputs": [],
      "stateMutability": "nonpayable",
      "type": "function"
    },
    {
      "inputs": [
        {
          "internalType": "address",
          "name": "operator",
          "type": "address"
        },
        {
          "internalType": "bool",
          "name": "approved",
          "type": "bool"
        }
      ],
      "name": "setApprovalForAll",
      "outputs": [],
      "stateMutability": "nonpayable",
      "type": "function"
    },
    {
      "inputs": [
        {
          "internalType": "bytes4",
          "name": "interfaceId",
          "type": "bytes4"
        }
      ],
      "name": "supportsInterface",
      "outputs": [
        {
          "internalType": "bool",
          "name": "",
          "type": "bool"
        }
      ],
      "stateMutability": "view",
      "type": "function",
      "constant": true
    },
    {
      "inputs": [],
      "name": "symbol",
      "outputs": [
        {
          "internalType": "string",
          "name": "",
          "type": "string"
        }
      ],
      "stateMutability": "view",
      "type": "function",
      "constant": true
    },
    {
      "inputs": [
        {
          "internalType": "uint256",
          "name": "index",
          "type": "uint256"
        }
      ],
      "name": "tokenByIndex",
      "outputs": [
        {
          "internalType": "uint256",
          "name": "",
          "type": "uint256"
        }
      ],
      "stateMutability": "view",
      "type": "function",
      "constant": true
    },
    {
      "inputs": [
        {
          "internalType": "address",
          "name": "owner",
          "type": "address"
        },
        {
          "internalType": "uint256",
          "name": "index",
          "type": "uint256"
        }
      ],
      "name": "tokenOfOwnerByIndex",
      "outputs": [
        {
          "internalType": "uint256",
          "name": "",
          "type": "uint256"
        }
      ],
      "stateMutability": "view",
      "type": "function",
      "constant": true
    },
    {
      "inputs": [
        {
          "internalType": "uint256",
          "name": "tokenId",
          "type": "uint256"
        }
      ],
      "name": "tokenURI",
      "outputs": [
        {
          "internalType": "string",
          "name": "",
          "type": "string"
        }
      ],
      "stateMutability": "view",
      "type": "function",
      "constant": true
    },
    {
      "inputs": [],
      "name": "totalSupply",
      "outputs": [
        {
          "internalType": "uint256",
          "name": "",
          "type": "uint256"
        }
      ],
      "stateMutability": "view",
      "type": "function",
      "constant": true
    },
    {
      "inputs": [
        {
          "internalType": "address",
          "name": "from",
          "type": "address"
        },
        {
          "internalType": "address",
          "name": "to",
          "type": "address"
        },
        {
          "internalType": "uint256",
          "name": "tokenId",
          "type": "uint256"
        }
      ],
      "name": "transferFrom",
      "outputs": [],
      "stateMutability": "nonpayable",
      "type": "function"
    },
    {
      "inputs": [],
      "name": "unpause",
      "outputs": [],
      "stateMutability": "nonpayable",
      "type": "function"
    }
  ],
  "bytecode": "0x608060405234801561001057600080fd5b506129ed806100206000396000f3fe608060405234801561001057600080fd5b50600436106101f05760003560e01c80636a6278421161010f578063a6487c53116100a2578063d539139311610071578063d539139314610416578063d547741f1461043d578063e63ab1e914610450578063e985e9c51461046557600080fd5b8063a6487c53146103ca578063b88d4fde146103dd578063c87b56dd146103f0578063ca15c8731461040357600080fd5b806391d14854116100de57806391d148541461039457806395d89b41146103a7578063a217fddf146103af578063a22cb465146103b757600080fd5b80636a6278421461035357806370a08231146103665780638456cb59146103795780639010d07c1461038157600080fd5b80632f745c591161018757806342966c681161015657806342966c681461030e5780634f6ccce7146103215780635c975abb146103345780636352211e1461034057600080fd5b80632f745c59146102cd57806336568abe146102e05780633f4ba83a146102f357806342842e0e146102fb57600080fd5b806318160ddd116101c357806318160ddd1461027257806323b872dd14610284578063248a9ca3146102975780632f2ff15d146102ba57600080fd5b806301ffc9a7146101f557806306fdde031461021d578063081812fc14610232578063095ea7b31461025d575b600080fd5b6102086102033660046122ce565b6104a1565b60405190151581526020015b60405180910390f35b6102256104b2565b6040516102149190612343565b610245610240366004612356565b610544565b6040516001600160a01b039091168152602001610214565b61027061026b36600461238b565b6105de565b005b60fd545b604051908152602001610214565b6102706102923660046123b5565b6106f4565b6102766102a5366004612356565b60009081526065602052604090206001015490565b6102706102c83660046123f1565b610726565b6102766102db36600461238b565b61074c565b6102706102ee3660046123f1565b6107e2565b610270610860565b6102706103093660046123b5565b6108f6565b61027061031c366004612356565b610911565b61027661032f366004612356565b61098b565b61015f5460ff16610208565b61024561034e366004612356565b610a1e565b61027061036136600461241d565b610a95565b61027661037436600461241d565b610b53565b610270610bda565b61024561038f366004612438565b610c6c565b6102086103a23660046123f1565b610c8b565b610225610cb6565b610276600081565b6102706103c536600461245a565b610cc5565b6102706103d8366004612542565b610cd0565b6102706103eb3660046125ca565b610d97565b6102256103fe366004612356565b610dc9565b610276610411366004612356565b610ea3565b6102767f9f2df0fed2c77648de5860a4cc508cd0818c85b8b8a1ab4ceeef8d981c8956a681565b61027061044b3660046123f1565b610eba565b61027660008051602061299883398151915281565b610208610473366004612646565b6001600160a01b03918216600090815260ce6020908152604080832093909416825291909152205460ff1690565b60006104ac82610ee0565b92915050565b606060c980546104c190612670565b80601f01602080910402602001604051908101604052809291908181526020018280546104ed90612670565b801561053a5780601f1061050f5761010080835404028352916020019161053a565b820191906000526020600020905b81548152906001019060200180831161051d57829003601f168201915b5050505050905090565b600081815260cb60205260408120546001600160a01b03166105c25760405162461bcd60e51b815260206004820152602c60248201527f4552433732313a20617070726f76656420717565727920666f72206e6f6e657860448201526b34b9ba32b73a103a37b5b2b760a11b60648201526084015b60405180910390fd5b50600090815260cd60205260409020546001600160a01b031690565b60006105e982610a1e565b9050806001600160a01b0316836001600160a01b031614156106575760405162461bcd60e51b815260206004820152602160248201527f4552433732313a20617070726f76616c20746f2063757272656e74206f776e656044820152603960f91b60648201526084016105b9565b336001600160a01b038216148061067357506106738133610473565b6106e55760405162461bcd60e51b815260206004820152603860248201527f4552433732313a20617070726f76652063616c6c6572206973206e6f74206f7760448201527f6e6572206e6f7220617070726f76656420666f7220616c6c000000000000000060648201526084016105b9565b6106ef8383610f05565b505050565b6106ff335b82610f73565b61071b5760405162461bcd60e51b81526004016105b9906126ab565b6106ef83838361106a565b6000828152606560205260409020600101546107428133611215565b6106ef8383611279565b600061075783610b53565b82106107b95760405162461bcd60e51b815260206004820152602b60248201527f455243373231456e756d657261626c653a206f776e657220696e646578206f7560448201526a74206f6620626f756e647360a81b60648201526084016105b9565b506001600160a01b0391909116600090815260fb60209081526040808320938352929052205490565b6001600160a01b03811633146108525760405162461bcd60e51b815260206004820152602f60248201527f416363657373436f6e74726f6c3a2063616e206f6e6c792072656e6f756e636560448201526e103937b632b9903337b91039b2b63360891b60648201526084016105b9565b61085c828261129b565b5050565b61087860008051602061299883398151915233610c8b565b6108ec576040805162461bcd60e51b81526020600482015260248101919091527f4552433732315072657365744d696e7465725061757365724175746f49643a2060448201527f6d75737420686176652070617573657220726f6c6520746f20756e706175736560648201526084016105b9565b6108f46112bd565b565b6106ef83838360405180602001604052806000815250610d97565b61091a336106f9565b61097f5760405162461bcd60e51b815260206004820152603060248201527f4552433732314275726e61626c653a2063616c6c6572206973206e6f74206f7760448201526f1b995c881b9bdc88185c1c1c9bdd995960821b60648201526084016105b9565b61098881611352565b50565b600061099660fd5490565b82106109f95760405162461bcd60e51b815260206004820152602c60248201527f455243373231456e756d657261626c653a20676c6f62616c20696e646578206f60448201526b7574206f6620626f756e647360a01b60648201526084016105b9565b60fd8281548110610a0c57610a0c6126fc565b90600052602060002001549050919050565b600081815260cb60205260408120546001600160a01b0316806104ac5760405162461bcd60e51b815260206004820152602960248201527f4552433732313a206f776e657220717565727920666f72206e6f6e657869737460448201526832b73a103a37b5b2b760b91b60648201526084016105b9565b610abf7f9f2df0fed2c77648de5860a4cc508cd0818c85b8b8a1ab4ceeef8d981c8956a633610c8b565b610b315760405162461bcd60e51b815260206004820152603d60248201527f4552433732315072657365744d696e7465725061757365724175746f49643a2060448201527f6d7573742068617665206d696e74657220726f6c6520746f206d696e7400000060648201526084016105b9565b610b4481610b3f6101c35490565b6113f9565b6109886101c380546001019055565b60006001600160a01b038216610bbe5760405162461bcd60e51b815260206004820152602a60248201527f4552433732313a2062616c616e636520717565727920666f7220746865207a65604482015269726f206164647265737360b01b60648201526084016105b9565b506001600160a01b0316600090815260cc602052604090205490565b610bf260008051602061299883398151915233610c8b565b610c645760405162461bcd60e51b815260206004820152603e60248201527f4552433732315072657365744d696e7465725061757365724175746f49643a2060448201527f6d75737420686176652070617573657220726f6c6520746f207061757365000060648201526084016105b9565b6108f4611547565b6000828152609760205260408120610c8490836115c4565b9392505050565b60009182526065602090815260408084206001600160a01b0393909316845291905290205460ff1690565b606060ca80546104c190612670565b61085c3383836115d0565b600054610100900460ff16610ceb5760005460ff1615610cef565b303b155b610d525760405162461bcd60e51b815260206004820152602e60248201527f496e697469616c697a61626c653a20636f6e747261637420697320616c72656160448201526d191e481a5b9a5d1a585b1a5e995960921b60648201526084016105b9565b600054610100900460ff16158015610d74576000805461ffff19166101011790555b610d7f84848461169f565b8015610d91576000805461ff00191690555b50505050565b610da13383610f73565b610dbd5760405162461bcd60e51b81526004016105b9906126ab565b610d918484848461171b565b600081815260cb60205260409020546060906001600160a01b0316610e485760405162461bcd60e51b815260206004820152602f60248201527f4552433732314d657461646174613a2055524920717565727920666f72206e6f60448201526e3732bc34b9ba32b73a103a37b5b2b760891b60648201526084016105b9565b6000610e5261174e565b90506000815111610e725760405180602001604052806000815250610c84565b80610e7c8461175e565b604051602001610e8d929190612712565b6040516020818303038152906040529392505050565b60008181526097602052604081206104ac9061185c565b600082815260656020526040902060010154610ed68133611215565b6106ef838361129b565b60006001600160e01b0319821663780e9d6360e01b14806104ac57506104ac82611866565b600081815260cd6020526040902080546001600160a01b0319166001600160a01b0384169081179091558190610f3a82610a1e565b6001600160a01b03167f8c5be1e5ebec7d5bd14f71427d1e84f3dd0314c0f7b2291e5b200ac8c7c3b92560405160405180910390a45050565b600081815260cb60205260408120546001600160a01b0316610fec5760405162461bcd60e51b815260206004820152602c60248201527f4552433732313a206f70657261746f7220717565727920666f72206e6f6e657860448201526b34b9ba32b73a103a37b5b2b760a11b60648201526084016105b9565b6000610ff783610a1e565b9050806001600160a01b0316846001600160a01b031614806110325750836001600160a01b031661102784610544565b6001600160a01b0316145b8061106257506001600160a01b03808216600090815260ce602090815260408083209388168352929052205460ff165b949350505050565b826001600160a01b031661107d82610a1e565b6001600160a01b0316146110e55760405162461bcd60e51b815260206004820152602960248201527f4552433732313a207472616e73666572206f6620746f6b656e2074686174206960448201526839903737ba1037bbb760b91b60648201526084016105b9565b6001600160a01b0382166111475760405162461bcd60e51b8152602060048201526024808201527f4552433732313a207472616e7366657220746f20746865207a65726f206164646044820152637265737360e01b60648201526084016105b9565b6111528383836118a6565b61115d600082610f05565b6001600160a01b038316600090815260cc60205260408120805460019290611186908490612757565b90915550506001600160a01b038216600090815260cc602052604081208054600192906111b490849061276e565b9091555050600081815260cb602052604080822080546001600160a01b0319166001600160a01b0386811691821790925591518493918716917fddf252ad1be2c89b69c2b068fc378daa952ba7f163c4a11628f55a4df523b3ef91a4505050565b61121f8282610c8b565b61085c57611237816001600160a01b031660146118b1565b6112428360206118b1565b604051602001611253929190612786565b60408051601f198184030181529082905262461bcd60e51b82526105b991600401612343565b6112838282611a4d565b60008281526097602052604090206106ef9082611ad3565b6112a58282611ae8565b60008281526097602052604090206106ef9082611b4f565b61015f5460ff166113075760405162461bcd60e51b815260206004820152601460248201527314185d5cd8589b194e881b9bdd081c185d5cd95960621b60448201526064016105b9565b61015f805460ff191690557f5db9ee0a495bf2e6ff9c91a7834c1ba4fdd244a5e8aa4e537bd38aeae4b073aa335b6040516001600160a01b03909116815260200160405180910390a1565b600061135d82610a1e565b905061136b816000846118a6565b611376600083610f05565b6001600160a01b038116600090815260cc6020526040812080546001929061139f908490612757565b9091555050600082815260cb602052604080822080546001600160a01b0319169055518391906001600160a01b038416907fddf252ad1be2c89b69c2b068fc378daa952ba7f163c4a11628f55a4df523b3ef908390a45050565b6001600160a01b03821661144f5760405162461bcd60e51b815260206004820181905260248201527f4552433732313a206d696e7420746f20746865207a65726f206164647265737360448201526064016105b9565b600081815260cb60205260409020546001600160a01b0316156114b45760405162461bcd60e51b815260206004820152601c60248201527f4552433732313a20746f6b656e20616c7265616479206d696e7465640000000060448201526064016105b9565b6114c0600083836118a6565b6001600160a01b038216600090815260cc602052604081208054600192906114e990849061276e565b9091555050600081815260cb602052604080822080546001600160a01b0319166001600160a01b03861690811790915590518392907fddf252ad1be2c89b69c2b068fc378daa952ba7f163c4a11628f55a4df523b3ef908290a45050565b61015f5460ff161561158e5760405162461bcd60e51b815260206004820152601060248201526f14185d5cd8589b194e881c185d5cd95960821b60448201526064016105b9565b61015f805460ff191660011790557f62e78cea01bee320cd4e420270b5ea74000d11b0c9f74754ebdbfc544b05a2586113353390565b6000610c848383611b64565b816001600160a01b0316836001600160a01b031614156116325760405162461bcd60e51b815260206004820152601960248201527f4552433732313a20617070726f766520746f2063616c6c65720000000000000060448201526064016105b9565b6001600160a01b03838116600081815260ce6020908152604080832094871680845294825291829020805460ff191686151590811790915591519182527f17307eab39ab6107e8899845ad3d59bd9653f200f220920489ca2b5937696c31910160405180910390a3505050565b600054610100900460ff166116c65760405162461bcd60e51b81526004016105b9906127fb565b6116ce611b8e565b6116d6611b8e565b6116de611b8e565b6116e6611b8e565b6116f08383611bb5565b6116f8611b8e565b611700611b8e565b611708611c03565b611710611b8e565b6106ef838383611c37565b61172684848461106a565b61173284848484611cc0565b610d915760405162461bcd60e51b81526004016105b990612846565b60606101c480546104c190612670565b6060816117825750506040805180820190915260018152600360fc1b602082015290565b8160005b81156117ac578061179681612898565b91506117a59050600a836128c9565b9150611786565b60008167ffffffffffffffff8111156117c7576117c7612496565b6040519080825280601f01601f1916602001820160405280156117f1576020820181803683370190505b5090505b841561106257611806600183612757565b9150611813600a866128dd565b61181e90603061276e565b60f81b818381518110611833576118336126fc565b60200101906001600160f81b031916908160001a905350611855600a866128c9565b94506117f5565b60006104ac825490565b60006001600160e01b031982166380ac58cd60e01b148061189757506001600160e01b03198216635b5e139f60e01b145b806104ac57506104ac82611dbe565b6106ef838383611de3565b606060006118c08360026128f1565b6118cb90600261276e565b67ffffffffffffffff8111156118e3576118e3612496565b6040519080825280601f01601f19166020018201604052801561190d576020820181803683370190505b509050600360fc1b81600081518110611928576119286126fc565b60200101906001600160f81b031916908160001a905350600f60fb1b81600181518110611957576119576126fc565b60200101906001600160f81b031916908160001a905350600061197b8460026128f1565b61198690600161276e565b90505b60018111156119fe576f181899199a1a9b1b9c1cb0b131b232b360811b85600f16601081106119ba576119ba6126fc565b1a60f81b8282815181106119d0576119d06126fc565b60200101906001600160f81b031916908160001a90535060049490941c936119f781612910565b9050611989565b508315610c845760405162461bcd60e51b815260206004820181905260248201527f537472696e67733a20686578206c656e67746820696e73756666696369656e7460448201526064016105b9565b611a578282610c8b565b61085c5760008281526065602090815260408083206001600160a01b03851684529091529020805460ff19166001179055611a8f3390565b6001600160a01b0316816001600160a01b0316837f2f8788117e7eff1d82e926ec794901d17c78024a50270940304540a733656f0d60405160405180910390a45050565b6000610c84836001600160a01b038416611e56565b611af28282610c8b565b1561085c5760008281526065602090815260408083206001600160a01b0385168085529252808320805460ff1916905551339285917ff6391f5c32d9c69d2a47ea670b442974b53935d1edc7fd64eb21e047a839171b9190a45050565b6000610c84836001600160a01b038416611ea5565b6000826000018281548110611b7b57611b7b6126fc565b9060005260206000200154905092915050565b600054610100900460ff166108f45760405162461bcd60e51b81526004016105b9906127fb565b600054610100900460ff16611bdc5760405162461bcd60e51b81526004016105b9906127fb565b8151611bef9060c990602085019061221f565b5080516106ef9060ca90602084019061221f565b600054610100900460ff16611c2a5760405162461bcd60e51b81526004016105b9906127fb565b61015f805460ff19169055565b600054610100900460ff16611c5e5760405162461bcd60e51b81526004016105b9906127fb565b8051611c72906101c490602084019061221f565b50611c7e600033611f98565b611ca87f9f2df0fed2c77648de5860a4cc508cd0818c85b8b8a1ab4ceeef8d981c8956a633611f98565b6106ef60008051602061299883398151915233611f98565b60006001600160a01b0384163b15611db357604051630a85bd0160e11b81526001600160a01b0385169063150b7a0290611d04903390899088908890600401612927565b6020604051808303816000875af1925050508015611d3f575060408051601f3d908101601f19168201909252611d3c91810190612964565b60015b611d99573d808015611d6d576040519150601f19603f3d011682016040523d82523d6000602084013e611d72565b606091505b508051611d915760405162461bcd60e51b81526004016105b990612846565b805181602001fd5b6001600160e01b031916630a85bd0160e11b149050611062565b506001949350505050565b60006001600160e01b03198216635a05180f60e01b14806104ac57506104ac82611fa2565b611dee838383611fd7565b61015f5460ff16156106ef5760405162461bcd60e51b815260206004820152602b60248201527f4552433732315061757361626c653a20746f6b656e207472616e73666572207760448201526a1a1a5b19481c185d5cd95960aa1b60648201526084016105b9565b6000818152600183016020526040812054611e9d575081546001818101845560008481526020808220909301849055845484825282860190935260409020919091556104ac565b5060006104ac565b60008181526001830160205260408120548015611f8e576000611ec9600183612757565b8554909150600090611edd90600190612757565b9050818114611f42576000866000018281548110611efd57611efd6126fc565b9060005260206000200154905080876000018481548110611f2057611f206126fc565b6000918252602080832090910192909255918252600188019052604090208390555b8554869080611f5357611f53612981565b6001900381819060005260206000200160009055905585600101600086815260200190815260200160002060009055600193505050506104ac565b60009150506104ac565b61085c8282611279565b60006001600160e01b03198216637965db0b60e01b14806104ac57506301ffc9a760e01b6001600160e01b03198316146104ac565b6001600160a01b0383166120325761202d8160fd8054600083815260fe60205260408120829055600182018355919091527f9346ac6dd7de6b96975fec380d4d994c4c12e6a8897544f22915316cc6cca2800155565b612055565b816001600160a01b0316836001600160a01b03161461205557612055838261208f565b6001600160a01b03821661206c576106ef8161212c565b826001600160a01b0316826001600160a01b0316146106ef576106ef82826121db565b6000600161209c84610b53565b6120a69190612757565b600083815260fc60205260409020549091508082146120f9576001600160a01b038416600090815260fb60209081526040808320858452825280832054848452818420819055835260fc90915290208190555b50600091825260fc602090815260408084208490556001600160a01b03909416835260fb81528383209183525290812055565b60fd5460009061213e90600190612757565b600083815260fe602052604081205460fd8054939450909284908110612166576121666126fc565b906000526020600020015490508060fd8381548110612187576121876126fc565b600091825260208083209091019290925582815260fe909152604080822084905585825281205560fd8054806121bf576121bf612981565b6001900381819060005260206000200160009055905550505050565b60006121e683610b53565b6001600160a01b03909316600090815260fb60209081526040808320868452825280832085905593825260fc9052919091209190915550565b82805461222b90612670565b90600052602060002090601f01602090048101928261224d5760008555612293565b82601f1061226657805160ff1916838001178555612293565b82800160010185558215612293579182015b82811115612293578251825591602001919060010190612278565b5061229f9291506122a3565b5090565b5b8082111561229f57600081556001016122a4565b6001600160e01b03198116811461098857600080fd5b6000602082840312156122e057600080fd5b8135610c84816122b8565b60005b838110156123065781810151838201526020016122ee565b83811115610d915750506000910152565b6000815180845261232f8160208601602086016122eb565b601f01601f19169290920160200192915050565b602081526000610c846020830184612317565b60006020828403121561236857600080fd5b5035919050565b80356001600160a01b038116811461238657600080fd5b919050565b6000806040838503121561239e57600080fd5b6123a78361236f565b946020939093013593505050565b6000806000606084860312156123ca57600080fd5b6123d38461236f565b92506123e16020850161236f565b9150604084013590509250925092565b6000806040838503121561240457600080fd5b823591506124146020840161236f565b90509250929050565b60006020828403121561242f57600080fd5b610c848261236f565b6000806040838503121561244b57600080fd5b50508035926020909101359150565b6000806040838503121561246d57600080fd5b6124768361236f565b91506020830135801515811461248b57600080fd5b809150509250929050565b634e487b7160e01b600052604160045260246000fd5b600067ffffffffffffffff808411156124c7576124c7612496565b604051601f8501601f19908116603f011681019082821181831017156124ef576124ef612496565b8160405280935085815286868601111561250857600080fd5b858560208301376000602087830101525050509392505050565b600082601f83011261253357600080fd5b610c84838335602085016124ac565b60008060006060848603121561255757600080fd5b833567ffffffffffffffff8082111561256f57600080fd5b61257b87838801612522565b9450602086013591508082111561259157600080fd5b61259d87838801612522565b935060408601359150808211156125b357600080fd5b506125c086828701612522565b9150509250925092565b600080600080608085870312156125e057600080fd5b6125e98561236f565b93506125f76020860161236f565b925060408501359150606085013567ffffffffffffffff81111561261a57600080fd5b8501601f8101871361262b57600080fd5b61263a878235602084016124ac565b91505092959194509250565b6000806040838503121561265957600080fd5b6126628361236f565b91506124146020840161236f565b600181811c9082168061268457607f821691505b602082108114156126a557634e487b7160e01b600052602260045260246000fd5b50919050565b60208082526031908201527f4552433732313a207472616e736665722063616c6c6572206973206e6f74206f6040820152701ddb995c881b9bdc88185c1c1c9bdd9959607a1b606082015260800190565b634e487b7160e01b600052603260045260246000fd5b600083516127248184602088016122eb565b8351908301906127388183602088016122eb565b01949350505050565b634e487b7160e01b600052601160045260246000fd5b60008282101561276957612769612741565b500390565b6000821982111561278157612781612741565b500190565b7f416363657373436f6e74726f6c3a206163636f756e74200000000000000000008152600083516127be8160178501602088016122eb565b7001034b99036b4b9b9b4b733903937b6329607d1b60179184019182015283516127ef8160288401602088016122eb565b01602801949350505050565b6020808252602b908201527f496e697469616c697a61626c653a20636f6e7472616374206973206e6f74206960408201526a6e697469616c697a696e6760a81b606082015260800190565b60208082526032908201527f4552433732313a207472616e7366657220746f206e6f6e20455243373231526560408201527131b2b4bb32b91034b6b83632b6b2b73a32b960711b606082015260800190565b60006000198214156128ac576128ac612741565b5060010190565b634e487b7160e01b600052601260045260246000fd5b6000826128d8576128d86128b3565b500490565b6000826128ec576128ec6128b3565b500690565b600081600019048311821515161561290b5761290b612741565b500290565b60008161291f5761291f612741565b506000190190565b6001600160a01b038581168252841660208201526040810183905260806060820181905260009061295a90830184612317565b9695505050505050565b60006020828403121561297657600080fd5b8151610c84816122b8565b634e487b7160e01b600052603160045260246000fdfe65d7a28e3265b37a6474929f336521b332c1681b933f6cb9f3376673440d862aa26469706673582212202709d3193c8dc8f210d5e0932434e83aa49bc2e1c21182dd2489ea24c3941fc664736f6c634300080b0033",
  "immutableReferences": {},
  "source": "// SPDX-License-Identifier: MIT\r\n\r\npragma solidity ^0.8.0;\r\n\r\nimport \"@openzeppelin/contracts-upgradeable/token/ERC721/presets/ERC721PresetMinterPauserAutoIdUpgradeable.sol\";\r\n\r\ncontract ERC721Core is ERC721PresetMinterPauserAutoIdUpgradeable\r\n{\r\n}   ",
  "sourcePath": "@lerna-contracts-test\\tokens\\contracts\\MyERC721.sol",
  "compiler": {
    "name": "solc",
    "version": "0.8.11+commit.d7f03943.Emscripten.clang"
  },
  "schemaVersion": "3.4.9",
  "updatedAt": "2022-09-04T01:46:41.087Z",
  "networkType": "ethereum",
  "devdoc": {
    "kind": "dev",
    "methods": {
      "approve(address,uint256)": {
        "details": "See {IERC721-approve}."
      },
      "balanceOf(address)": {
        "details": "See {IERC721-balanceOf}."
      },
      "burn(uint256)": {
        "details": "Burns `tokenId`. See {ERC721-_burn}. Requirements: - The caller must own `tokenId` or be an approved operator."
      },
      "getApproved(uint256)": {
        "details": "See {IERC721-getApproved}."
      },
      "getRoleAdmin(bytes32)": {
        "details": "Returns the admin role that controls `role`. See {grantRole} and {revokeRole}. To change a role's admin, use {_setRoleAdmin}."
      },
      "getRoleMember(bytes32,uint256)": {
        "details": "Returns one of the accounts that have `role`. `index` must be a value between 0 and {getRoleMemberCount}, non-inclusive. Role bearers are not sorted in any particular way, and their ordering may change at any point. WARNING: When using {getRoleMember} and {getRoleMemberCount}, make sure you perform all queries on the same block. See the following https://forum.openzeppelin.com/t/iterating-over-elements-on-enumerableset-in-openzeppelin-contracts/2296[forum post] for more information."
      },
      "getRoleMemberCount(bytes32)": {
        "details": "Returns the number of accounts that have `role`. Can be used together with {getRoleMember} to enumerate all bearers of a role."
      },
      "grantRole(bytes32,address)": {
        "details": "Grants `role` to `account`. If `account` had not been already granted `role`, emits a {RoleGranted} event. Requirements: - the caller must have ``role``'s admin role."
      },
      "hasRole(bytes32,address)": {
        "details": "Returns `true` if `account` has been granted `role`."
      },
      "isApprovedForAll(address,address)": {
        "details": "See {IERC721-isApprovedForAll}."
      },
      "mint(address)": {
        "details": "Creates a new token for `to`. Its token ID will be automatically assigned (and available on the emitted {IERC721-Transfer} event), and the token URI autogenerated based on the base URI passed at construction. See {ERC721-_mint}. Requirements: - the caller must have the `MINTER_ROLE`."
      },
      "name()": {
        "details": "See {IERC721Metadata-name}."
      },
      "ownerOf(uint256)": {
        "details": "See {IERC721-ownerOf}."
      },
      "pause()": {
        "details": "Pauses all token transfers. See {ERC721Pausable} and {Pausable-_pause}. Requirements: - the caller must have the `PAUSER_ROLE`."
      },
      "paused()": {
        "details": "Returns true if the contract is paused, and false otherwise."
      },
      "renounceRole(bytes32,address)": {
        "details": "Revokes `role` from the calling account. Roles are often managed via {grantRole} and {revokeRole}: this function's purpose is to provide a mechanism for accounts to lose their privileges if they are compromised (such as when a trusted device is misplaced). If the calling account had been revoked `role`, emits a {RoleRevoked} event. Requirements: - the caller must be `account`."
      },
      "revokeRole(bytes32,address)": {
        "details": "Revokes `role` from `account`. If `account` had been granted `role`, emits a {RoleRevoked} event. Requirements: - the caller must have ``role``'s admin role."
      },
      "safeTransferFrom(address,address,uint256)": {
        "details": "See {IERC721-safeTransferFrom}."
      },
      "safeTransferFrom(address,address,uint256,bytes)": {
        "details": "See {IERC721-safeTransferFrom}."
      },
      "setApprovalForAll(address,bool)": {
        "details": "See {IERC721-setApprovalForAll}."
      },
      "supportsInterface(bytes4)": {
        "details": "See {IERC165-supportsInterface}."
      },
      "symbol()": {
        "details": "See {IERC721Metadata-symbol}."
      },
      "tokenByIndex(uint256)": {
        "details": "See {IERC721Enumerable-tokenByIndex}."
      },
      "tokenOfOwnerByIndex(address,uint256)": {
        "details": "See {IERC721Enumerable-tokenOfOwnerByIndex}."
      },
      "tokenURI(uint256)": {
        "details": "See {IERC721Metadata-tokenURI}."
      },
      "totalSupply()": {
        "details": "See {IERC721Enumerable-totalSupply}."
      },
      "transferFrom(address,address,uint256)": {
        "details": "See {IERC721-transferFrom}."
      },
      "unpause()": {
        "details": "Unpauses all token transfers. See {ERC721Pausable} and {Pausable-_unpause}. Requirements: - the caller must have the `PAUSER_ROLE`."
      }
    },
    "version": 1
  },
  "userdoc": {
    "kind": "user",
    "methods": {},
    "version": 1
  }
}